:020000040000FA
:10000000D8DA002095020000CD020000CF020000E7
:10001000D1020000D3020000D50200000000000061
:10002000000000000000000000000000D7020000F7
:10003000D902000000000000DB020000DD02000029
:1000400045190000591900006D19000081190000C0
:1000500095190000A9190000BD190000D119000070
:10006000E5190000F91900000D1A0000211A00001E
:10007000351A0000491A00005D1A0000711A0000CC
:10008000851A0000991A0000AD1A0000C11A00007C
:10009000D51A0000E91A0000FD1A0000111B00002B
:1000A000251B0000391B00004D1B0000611B0000D8
:1000B000751B0000891B00009D1B0000B11B000088
:1000C000C51B0000D91B0000ED1B0000011C000037
:1000D000151C0000291C00003D1C0000511C0000E4
:1000E000651C0000791C00008D1C0000A11C000094
:1000F000B51C0000C91C0000DD1C0000F11C000044
:10010000051D0000191D00002D1D0000411D0000EF
:10011000551D0000691D00007D1D0000911D00009F
:10012000A51D0000B91D0000CD1D0000E11D00004F
:10013000F51D0000091E00001D1E0000311E0000FC
:10014000451E0000591E00006D1E0000811E0000AB
:10015000951E0000A91E0000BD1E0000D11E00005B
:10016000E51E0000F91E00000D1F0000211F000009
:10017000351F0000491F00005D1F0000711F0000B7
:10018000851F0000991F0000AD1F0000C11F000067
:10019000D51F0000E91F0000FD1F00001120000016
:1001A00025200000392000004D20000061200000C3
:1001B00075200000892000009D200000B120000073
:1001C000C5200000D9200000ED2000000121000022
:1001D00015210000292100003D21000051210000CF
:1001E00065210000792100008D210000A12100007F
:1001F000B5210000C9210000DD210000F12100002F
:1002000005220000192200002D22000041220000DA
:1002100055220000692200007D220000912200008A
:10022000A5220000B9220000CD220000E12200003A
:10023000F5220000092300001D23000031230000E7
:10024000452300009924000031290000192A0000EC
:10025000E12C0000DF020000DF020000DF020000EE
:10026000612E0000A53100002D3400005D36000035
:100270008137000095390000FD3B0000093D00007A
:10028000DFF80CD000F0CAF900480047615B0000BD
:10029000D8DA002012484FF01F01016011484FF0DA
:1002A0007701016010484FF0770101600F484FF46B
:1002B000885101600B484FF0760101600A484FF009
:1002C000760101600A4880470A480047FEE7FEE7DA
:1002D000FEE7FEE7FEE7FEE7FEE7FEE7FEE7FEE7F6
:1002E00010080540040805400C08054000080540BA
:1002F000E14F000081020000D2B201E000F8012BC2
:10030000491EFBD270470022F6E710B513460A4695
:1003100004461946FFF7F0FF204610BDF0B480EA0E
:100320000102D40F4200B2EB410F02D2024608464E
:1003300011464A0042D0C30DDDB2C1F3C752AD1A17
:10034000202D35DAC1F3160141F4000204B1524206
:10035000C5F1200602FA06F12A411044B3EBD05F42
:1003600023D0C4B1012DA0EBC35009DCF0BC4FF089
:10037000004202EAC352DBB200F5000000F0F6B81A
:10038000400000F1807000EBC350A0F1807040EAA3
:10039000D170490009E0490841EAC071A0EBC3509F
:1003A00000F50000400800EBC350F0BC00F0D5B8E9
:1003B0006142012202EB4101001BF6E7F0BC7047ED
:1003C00081F00041AAE780F00040A7E7C10F80EA72
:1003D000E0700844CA079623002100F0C7B8000067
:1003E000002801DBC0F10040002901DBC1F1004120
:1003F0008142704770477047704770477047704739
:10040000BFFFDFFFFFFEFFFFFFFFFFFFFFFFFFFF5D
:10041000FFFFFFFFFFFFFFFFFFFFFFFFFFFFFFFFEC
:1004200080EA010210B502F00043400022D04A00E9
:100430001FD0010E01EB1261C0F35600C2F3560249
:1004400040F4000042F40002A0FB022000047F39C7
:10045000140400D0401C50EA124001D44000491E50
:10046000C2B20C0604EBD010401C4008802A02D017
:1004700003E0002010BD20F00100002900DA002078
:10048000184310BD30B480EA010202F0004530F09C
:10049000004221F0004013D090B1C30DD40DC2F33F
:1004A0001601C0F31600E41A41F4000140F4000202
:1004B0007D34914201D3641C00E04900002C02DA33
:1004C00030BC002070474FF400000023914201D35C
:1004D000891A034340084FEA4101F7D151B19142D3
:1004E00002D14FF0004105E002D24FF0010101E0DE
:1004F0006FF0010103EBC450284430BC00F02DB86C
:1005000000F0004220F00040C10DC0F3160040F49E
:1005100000007F2901DA00207047962903DCC1F131
:100520009601C84001E096398840002AF4D0404244
:10053000704720F00040C10DC0F3160040F40000E9
:100540007F2901DA00207047962903DCC1F196016A
:10055000C84070479639884070470029A8BF704747
:10056000401C490008BF20F00100704710B4B0FAE9
:1005700080FC00FA0CF050EA010404BF10BC704784
:1005800049B1CCF1200421FA04F411FA0CF118BF9E
:10059000012121430843A3EB0C01CB1D4FEA00616D
:1005A0004FEA102042BF002010BC704700EBC35040
:1005B00010440029A4BF10BC7047401C490008BF6C
:1005C00020F0010010BC7047420005D0C0F3C752B4
:1005D0005242914201DC0020704700EBC15070474D
:1005E00010B541000CD0C0F3C751962908DC7E2914
:1005F00009DC06DB410204D000F0004040F07E50F0
:1006000010BD002010BDC1F19604C4F1200100FA14
:1006100001F1E040FFF7A1FFA04010BD064C074DDF
:1006200006E0E06840F0010394E8070098471034C2
:10063000AC42F6D3FFF728FE045C0000245C000007
:10064000704770471FB52A492A4800F08EFB0122E7
:1006500011460F2004F0C4F800221146042004F0D3
:10066000BFF8502000F0B4FD02A800F09EFC00206E
:100670008DF808008DF809008DF80A0005208DF826
:100680000C0002A800F0F6FB684600F045FB0020D5
:100690000190019820F01F0001903121019861F331
:1006A00010200190019820F0704000F180500190DE
:1006B000019820F0706000F180700190019820F4A2
:1006C000700000F58010019000208DF80000019866
:1006D00020F080000190684600F0D4F94FF44040CB
:1006E00001F030F803F022FC052000F048FB1FBDAC
:1006F00010221100777777071CB54FF48070ADF8A2
:1007000000005020ADF802001D480190684601F03D
:100710007FF8502005F016F90F21502005F032F92E
:10072000502005F01DF94FF48470ADF80000512001
:10073000ADF8020013480190684601F069F85120B5
:1007400005F000F90A21512005F01CF9512005F0AF
:1007500007F94FF48370ADF800005220ADF80200A5
:1007600009480190684601F053F8522005F0EAF874
:100770000F21522005F006F9522005F0F1F81CBDBA
:10078000E11800001D1900004119000000B585B0F6
:10079000684601F015F80220ADF802000020ADF81F
:1007A00010006A468021022000F0F2FD684601F048
:1007B00007F80220ADF802000020ADF810006A46EC
:1007C0004021022000F0E4FD684600F0F9FF02201D
:1007D000ADF802000020ADF810006A464FF48051D9
:1007E000012000F0D5FD2A220121022000F002FFA5
:1007F0002B220121002000F0FDFE282204210020F0
:1008000000F0F8FE29220821002000F0F3FE042267
:100810009101022000F0EEFE05B000BD00B58FB0E2
:100820000121080400F03CFD04A803F0C1FF0020F2
:10083000049005900820069000200890032009905D
:100840001C200A904FF440600B9000200C900D90FB
:100850000E9004A9134803F013FD01A803F01AFC3D
:10086000002001900290039001A90E4803F01CFCA7
:1008700000210C4803F002FF00210A4803F058FE53
:100880004FF48071074803F097FE00224FF4807107
:10089000044803F035FF0121024803F0A9FB0FB023
:1008A00000BD000000C0014000B587B00121042058
:1008B00000F030FD04A805F009F850208DF8110073
:1008C00000218DF8121002218DF8131040F63540EA
:1008D000069004A9264804F06BFC0122102124484C
:1008E00004F02EFD224804F0B3FF0121102000F097
:1008F00011FD04A804F0EAFF00208DF8110000218A
:100900008DF8121002218DF813104FF6FF7006902B
:1009100004A9184804F04CFC01221021154804F0E9
:100920000FFD01A804F07AFE00200190ADF8080048
:100930000320ADF80C000220ADF80E0001AA022140
:100940000C4804F073FD002202210A4804F0F2FE74
:1009500001220221074804F00FFE012291040548FC
:1009600004F0EEFC034804F073FF07B000BD000084
:1009700000500140005801407047000010B5044687
:1009800000BF24B144F06900692800D104E040F2BE
:100990008B5106A000F0DEFB00BF0B480078204022
:1009A00008B1012010BD0020FCE7000064726976E8
:1009B00065725C7372635C686333325F6C6C5F6337
:1009C0006C6B2E63000000003C40054070B504468F
:1009D000002500BF0CB1012C00D104E040F2E5413C
:1009E0001FA000F0B7FB00BF00BF2448008800F044
:1009F000010000B104E040F2E64119A000F0AAFBBA
:100A000000BF64B91E48007800F00700052801D136
:100A1000C54322E001201A49091D08701DE018484D
:100A2000DA300068C0F3C01030B94FF480510820AC
:100A300000F0ADF9054605E04FF48051012000F0CB
:100A4000A6F905464DB900200D49091D08704FF45F
:100A50008051202000F09BF90546284670BD00001B
:100A60006472697665725C7372635C686333325F6B
:100A70006C6C5F636C6B2E6300000000FE430540EE
:100A8000264005402DE9F041044614B96FF00206F6
:100A90001FE100BF2079C0F3C01018B12079C0F366
:100AA000C01000B104E04FF497618BA000F052FB3E
:100AB00000BF00BF207900F01F00401C182805D897
:100AC000207900F01F00401C00B104E040F2B94161
:100AD00081A000F03FFB00BF00BF6068C0F30820AA
:100AE000401CB0F5F07F06D86068C0F30820401CB9
:100AF000142800D304E040F2BA4177A000F02AFBAA
:100B000000BF00BF0121606801EB1070102805D8FC
:100B1000606801EB1070022800D304E040F2BB4192
:100B20006DA000F017FB00BF2079C0F3C01008B91A
:100B3000704901E070480168207900F01F00401CF6
:100B4000B1FBF0F76068C0F30820401C00FB07F51C
:100B500000BF6A48874203D86948874200D304E04F
:100B60004FF498615CA000F0F5FA00BF00BF654843
:100B7000854203D84010854200D304E040F2C141D1
:100B800055A000F0E7FA00BF00BF0121606801EB4B
:100B90001070B5FBF0F05C49884209D8012160680B
:100BA00001EB1070B5FBF0F05849884200D304E027
:100BB00040F2C24148A000F0CDFA00BF00BF60681B
:100BC000C0F30360401C102806D86068C0F30360BF
:100BD000401C022800D304E040F2C3413EA000F0D4
:100BE000B9FA00BF00BF6068C0F30350401C102872
:100BF00006D86068C0F30350401C022800D304E00C
:100C000040F2C44134A000F0A5FA00BF00BF606804
:100C1000C0F30350401CB5FBF0F03B49884209D8B3
:100C20006068C0F30350401CB5FBF0F037498842C0
:100C300000D304E040F2C54127A000F08BFA00BFCA
:100C400000BF6068C0F30360401CB5FBF0F02E49A4
:100C5000884209D86068C0F30360401CB5FBF0F01F
:100C60002A49884200D304E040F2C6411AA000F0AD
:100C700071FA00BF00BF2078012801D0207800B9A8
:100C800004E04FF4996114A000F064FA00BF00BFC3
:100C90001F48008800F0010000B104E040F2C941A3
:100CA0000DA000F057FA00BF2079C109194800686B
:100CB00061F3C7101749086060680860207820B9A0
:100CC0000120FFF783FE064603E00020FFF77EFECB
:100CD00006463046BDE8F0816472697665725C73E1
:100CE00072635C686333325F6C6C5F636C6B2E6342
:100CF0000000000000127A00D0BA002040787D0188
:100D000040420F0000389C1C00C2EB0BC0E1E40025
:100D1000FE430540004105400146002009B9C01EC0
:100D200022E000224A604A6822F080024A604A6853
:100D300022F01F024A6013234A6863F310224A60BC
:100D40004A6822F0704202F180524A604A6822F0FA
:100D5000706202F180724A604A6822F4700202F501
:100D600080124A6001220A70704770B504460D4631
:100D70002946204603F0A2FD04F0CCF870BD10B562
:100D80000446204603F028FF04F0C4F810BDF8B56F
:100D900005460C46002000906FF0070609E0284643
:100DA000FFF7ECFD012801D1002605E00098401C6A
:100DB00000900098A042F2D900BF3046F8BD000074
:100DC00070B50446002500BF0CB1012C00D104E031
:100DD0004FF467711EA000F0BDF900BF00BF2348AB
:100DE000008800F0010000B104E040F29D3118A03D
:100DF00000F0B0F900BFFCB91D48007800F0070012
:100E0000032802D16FF0050520E01948DA300068A8
:100E1000C0F3C01058B91648001D007810B96FF023
:100E2000050513E0012012490C3108700EE0012085
:100E30000F490C31087009E000200D490C31087091
:100E40004FF480510820FFF7A2FF0546284670BDE9
:100E50006472697665725C7372635C686333325F77
:100E60006C6C5F636C6B2E6300000000FE430540FA
:100E70002640054070B5044614B96FF002057FE0C6
:100E800000BF2078012801D0207800B904E04FF499
:100E90005F713CA000F05EF900BF00BF607840B118
:100EA0006078102805D06078202802D0607830283B
:100EB00000D104E040F27D3132A000F04BF900BFD8
:100EC00000BFA07810B1A078402800D104E040F223
:100ED0007E312CA000F03EF900BF00BFE0788028F2
:100EE00001D0E07800B904E040F27F3125A000F0A5
:100EF00031F900BF00BF2079012817D020790228DE
:100F000014D02079032811D0207904280ED020791C
:100F100005280BD02079062808D02079072805D08D
:100F20002079082802D02079092800D104E04FF464
:100F3000607114A000F00EF900BF00BF18480088CF
:100F400000F0010000B104E040F281310DA000F09A
:100F500001F900BF207913490870E07861780843EF
:100F6000A17808430E4912310870207820B9012079
:100F7000FFF726FF054603E00020FFF721FF0546A7
:100F8000284670BD6472697665725C7372635C68D2
:100F90006333325F6C6C5F636C6B2E630000000028
:100FA000FE430540A240054070470146002009B9B4
:100FB000C01E08E001220A7000228A704A70802256
:100FC000CA7005220A7170472DE9F04F89B0814639
:100FD0000D4616464846FFF7F9F982465349FFF792
:100FE0001FFA04465249FFF74DFA07462846FFF715
:100FF000EDF982464D49FFF713FA04464C49FFF7D5
:1010000041FA80464B493046FFF70AFA08904A49B0
:101010000898FFF737FA079041463846FFF77EF900
:1010200083464FF07C51FFF7FBF982460899FFF7A2
:10103000F7F904464149FFF7F3F906904FF07C5168
:101040000698FFF76BF90446FFF75AFA3C498860A7
:10105000886800EBD0714910A0EB410121B13848FC
:101060008068401C364988603548806844F62061B5
:10107000884206DD012033490870002009B0BDE830
:10108000F08F00243EE02E498868FFF79FF9039017
:101090002046FFF79BF983460899FFF7C1F982467E
:1010A0000399FFF7EFF90590059880F00040009054
:1010B0000799FFF7E7F9834604F09AFC82464FF060
:1010C0007E51FFF780F9394602904046FFF778F9E4
:1010D00001900299FFF7A4F939460390FFF71EF932
:1010E000049017491C31049841F8240051F8240059
:1010F0001549FFF775F904D2134911481C3040F81F
:101100002410641C0E488068A042BCDC0C4988682E
:1011100000EBD07149100A4A5161104680681146AF
:101120004969401A114688610120A7E70000C844B8
:101130000000704200007A44000040406F12833A81
:101140002480FF1F0080FF1F00A0BE44704770472F
:101150007047704700BFFEE708B50C49096AC1F344
:1011600002630B490968D9400A4B1944491EB1FB77
:10117000F3F206E0009200BF00994B1E0093002995
:10118000FAD1011EA0F10100F4D108BD00400540D4
:10119000CCBA0020808D5B00704770477047704765
:1011A0007047704770477047704770477047704787
:1011B0007047704770477047704770477047704777
:1011C000704770477047704770477047704700001E
:1011D00070B50446002500BF1D480068012800D1F5
:1011E00004E040F24F111BA0FFF7B4FF00BF00BFA7
:1011F000F02C00D804E04FF4A87116A0FFF7AAFF66
:1012000000BF13480830006820F0F00004F0F0013F
:1012100008430F490831086010E06D1C1448006A4B
:10122000C0F3026113480068C84044F62061B0FB77
:10123000F1F0A84202D26FF0070070BD04480830F8
:10124000006800F0F000A042E7D10020F5E70000C0
:10125000000401406472697665725C7372635C6855
:101260006333325F6C6C5F65666D2E630000000057
:1012700000400540CCBA0020704770477047704767
:1012800070477047704770477047704770477047A6
:101290007047704770477047704770477047704796
:1012A00070B504460D4600BF2CB1114820431049CB
:1012B000884200D103E084210EA0FFF74BFF00BF5E
:1012C00000BF0DB1012D00D103E0852109A0FFF77A
:1012D00041FF00BF012D05D10D484068A0430C49D6
:1012E000486004E00A48406820430949486070BDEE
:1012F00079FD0F0F6472697665725C7372635C6866
:101300006333325F6C6C5F6663672E6300000000BE
:101310000080044070B504460D4600BF2CB1114852
:1013200020431049884200D103E096210EA0FFF728
:1013300011FF00BF00BF0DB1012D00D103E09721C7
:1013400009A0FFF707FF00BF012D05D10D488068F8
:10135000A0430C49886004E00A488068204309499A
:10136000886070BDFF8707006472697665725C7380
:1013700072635C686333325F6C6C5F6663672E63B5
:101380000000000000800440704770477047000074
:101390002DE9F05F05460E4614464FF0000B14B9D8
:1013A0006FF0020BD9E000BF6D48008800F001002B
:1013B00000B104E04FF480716AA0FFF7CBFE00BFDC
:1013C00000BF4DB1012D07D0022D05D0032D03D054
:1013D000042D01D0052D00D104E040F2011161A0DF
:1013E000FFF7B8FE00BF00BF16B1B0B200B104E015
:1013F0004FF481715BA0FFF7ADFE00BF00BF2088F6
:1014000010B12088012800D104E040F2031155A05A
:10141000FFF7A0FE00BF00BF608810B160880228FF
:1014200000D104E04FF482714EA0FFF793FE00BF9D
:1014300000BFA08810B1A088042800D104E040F2C9
:10144000051148A0FFF786FE00BF00BFE08828B165
:10145000E088102802D0E088202800D104E04FF472
:10146000837140A0FFF776FE00BF00BF208918B14E
:101470002089B0F5804F00D104E040F2071139A077
:10148000FFF768FE00BF00BF608910B16089402887
:1014900000D104E04FF4847132A0FFF75BFE00BF7F
:1014A00000BFA08918B1A089B0F5007F00D104E089
:1014B00040F209112BA0FFF74DFE00BF00BFE089ED
:1014C00018B1E089B0F5805F00D104E04FF4857178
:1014D00024A0FFF73FFE00BF00BF208A18B1208A7A
:1014E000B0F5004F00D104E040F20B111DA0FFF752
:1014F00031FE00BF00272DE006F0010028B3208850
:1015000061880843A1880843E1880843618908434A
:10151000A1890843E1890843218940EA010A45F28B
:101520007728208A40EA0A0A48F400480C48001D3F
:1015300000EB851000EB8709B9F8000020EA0800ED
:101540000AEA08010843A9F80000761006B903E08A
:10155000781CC7B2102FCFD300BF5846BDE8F09F0C
:10156000FC3B05406472697665725C7372635C680B
:101570006333325F6C6C5F6770696F2E63000000CD
:1015800070B504460D4600BF4CB1012C07D0022CAB
:1015900005D0032C03D0042C01D0052C00D104E08D
:1015A00040F24A210BA0FFF7D5FD00BF00BF15B1E7
:1015B000A8B200B104E040F24B2106A0FFF7CAFD3B
:1015C00000BF0B48102101FB0406308828433080FF
:1015D00070BD00006472697665725C7372635C68EA
:1015E0006333325F6C6C5F6770696F2E630000005D
:1015F0000A3805402DE9F04104460D46164600BF65
:101600004CB1012C07D0022C05D0032C03D0042CA4
:1016100001D0052C00D104E04FF4BE7124A0FFF7E7
:1016200099FD00BF00BF15B1A8B200B104E040F2BF
:101630007D111FA0FFF78EFD00BF00BF0F2E03D945
:10164000202E02D33B2E00D804E04FF4BF7118A027
:10165000FFF780FD00BF00BF1C48008800F00100BC
:1016600000B104E040F27F1111A0FFF773FD00BF4D
:10167000002717E005F0010078B11448801D00EB49
:10168000841000EB8708B8F800004FF6C0710840DE
:1016900006F03F010843A8F800006D1005B903E00B
:1016A000781CC7B2102FE5D300BFBDE8F081000061
:1016B0006472697665725C7372635C686333325F0F
:1016C0006C6C5F6770696F2E63000000FC3B054027
:1016D00070B504460D4600BF4CB1012C07D0022C5A
:1016E00005D0032C03D0042C01D0052C00D104E03C
:1016F0004FF40E710BA0FFF72DFD00BF00BF15B119
:10170000A8B200B104E040F2392106A0FFF722FDA3
:1017100000BF0B48102101FB0406308828433080AD
:1017200070BD00006472697665725C7372635C6898
:101730006333325F6C6C5F6770696F2E630000000B
:101740000838054010B5044600BF44B1B4F5804FD9
:1017500005D0B4F5004F02D0B4F5404F00D104E0FD
:101760004FF4ED710EA0FFF7F5FC00BF00BF13486A
:10177000008800F0010000B104E040F2DB1108A095
:10178000FFF7E8FC00BF0D48001F0088C0F30D0004
:1017900004F4404108430949091F088010BD0000B6
:1017A0006472697665725C7372635C686333325F1E
:1017B0006C6C5F6770696F2E63000000FC3B054036
:1017C0000146002009B9C01E09E000220A804A80B3
:1017D000CA800A820A814A818A81CA818A807047C6
:1017E0007047704770477047704770477047704741
:1017F0007047704770477047704770477047704731
:101800007047704770477047704770477047704720
:1018100070B5044600260CB9F61E4BE000BF2088C8
:10182000B0F5007F00DA03E0CD2123A0FFF792FCA2
:1018300000BF2088400900EB4000202101EB400060
:10184000B4F9021088420AD82088400900EB400011
:10185000252101EB4000B4F90210884206D2B4F908
:101860000200202802D36FF0020623E060881A49A4
:10187000042212FB00152868C0F3080040F2FF1193
:10188000884208D120882860B4F90210134A6068A1
:1018900042F821000EE020882968C1F3080188423F
:1018A00006D1B4F902100D4A606842F8210001E047
:1018B0006FF00106304670BD6472697665725C73C4
:1018C00072635C686333325F6C6C5F696E746572FF
:1018D00072757074732E63005C100540CCB80020E4
:1018E00010B50B480068401C0949086008460068AC
:1018F000B0F57A7F0AD107480068FEF767FD064910
:1019000008600020034908600149086010BD00001C
:101910001C80FF1F1480FF1F1880FF1F10B54FF49D
:101920008021054803F0BEFB04480068401C0349C1
:10193000086003F0CBF910BD005801400880FF1F7C
:101940007047000010B5034908688047BFF34F8F08
:1019500010BD0000CCB8002010B50349486880478E
:10196000BFF34F8F10BD0000CCB8002010B5034965
:1019700088688047BFF34F8F10BD0000CCB80020AF
:1019800010B50349C8688047BFF34F8F10BD0000F2
:10199000CCB8002010B5034908698047BFF34F8FCA
:1019A00010BD0000CCB8002010B50349486980473D
:1019B000BFF34F8F10BD0000CCB8002010B5034915
:1019C00088698047BFF34F8F10BD0000CCB800205E
:1019D00010B50349C8698047BFF34F8F10BD0000A1
:1019E000CCB8002010B50349086A8047BFF34F8F79
:1019F00010BD0000CCB8002010B50349486A8047EC
:101A0000BFF34F8F10BD0000CCB8002010B50349C4
:101A1000886A8047BFF34F8F10BD0000CCB800200C
:101A200010B50349C86A8047BFF34F8F10BD00004F
:101A3000CCB8002010B50349086B8047BFF34F8F27
:101A400010BD0000CCB8002010B50349486B80479A
:101A5000BFF34F8F10BD0000CCB8002010B5034974
:101A6000886B8047BFF34F8F10BD0000CCB80020BB
:101A700010B50349C86B8047BFF34F8F10BD0000FE
:101A8000CCB8002010B50349086C8047BFF34F8FD6
:101A900010BD0000CCB8002010B50349486C804749
:101AA000BFF34F8F10BD0000CCB8002010B5034924
:101AB000886C8047BFF34F8F10BD0000CCB800206A
:101AC00010B50349C86C8047BFF34F8F10BD0000AD
:101AD000CCB8002010B50349086D8047BFF34F8F85
:101AE00010BD0000CCB8002010B50349486D8047F8
:101AF000BFF34F8F10BD0000CCB8002010B50349D4
:101B0000886D8047BFF34F8F10BD0000CCB8002018
:101B100010B50349C86D8047BFF34F8F10BD00005B
:101B2000CCB8002010B50349086E8047BFF34F8F33
:101B300010BD0000CCB8002010B50349486E8047A6
:101B4000BFF34F8F10BD0000CCB8002010B5034983
:101B5000886E8047BFF34F8F10BD0000CCB80020C7
:101B600010B50349C86E8047BFF34F8F10BD00000A
:101B7000CCB8002010B50349086F8047BFF34F8FE2
:101B800010BD0000CCB8002010B50349486F804755
:101B9000BFF34F8F10BD0000CCB8002010B5034933
:101BA000886F8047BFF34F8F10BD0000CCB8002076
:101BB00010B50349C86F8047BFF34F8F10BD0000B9
:101BC000CCB8002010B50349D1F880008047BFF39E
:101BD0004F8F10BDCCB8002010B50349D1F8840058
:101BE0008047BFF34F8F10BDCCB8002010B503491C
:101BF000D1F888008047BFF34F8F10BDCCB80020CC
:101C000010B50349D1F88C008047BFF34F8F10BD4A
:101C1000CCB8002010B50349D1F890008047BFF33D
:101C20004F8F10BDCCB8002010B50349D1F89400F7
:101C30008047BFF34F8F10BDCCB8002010B50349CB
:101C4000D1F898008047BFF34F8F10BDCCB800206B
:101C500010B50349D1F89C008047BFF34F8F10BDEA
:101C6000CCB8002010B50349D1F8A0008047BFF3DD
:101C70004F8F10BDCCB8002010B50349D1F8A40097
:101C80008047BFF34F8F10BDCCB8002010B503497B
:101C9000D1F8A8008047BFF34F8F10BDCCB800200B
:101CA00010B50349D1F8AC008047BFF34F8F10BD8A
:101CB000CCB8002010B50349D1F8B0008047BFF37D
:101CC0004F8F10BDCCB8002010B50349D1F8B40037
:101CD0008047BFF34F8F10BDCCB8002010B503492B
:101CE000D1F8B8008047BFF34F8F10BDCCB80020AB
:101CF00010B50349D1F8BC008047BFF34F8F10BD2A
:101D0000CCB8002010B50349D1F8C0008047BFF31C
:101D10004F8F10BDCCB8002010B50349D1F8C400D6
:101D20008047BFF34F8F10BDCCB8002010B50349DA
:101D3000D1F8C8008047BFF34F8F10BDCCB800204A
:101D400010B50349D1F8CC008047BFF34F8F10BDC9
:101D5000CCB8002010B50349D1F8D0008047BFF3BC
:101D60004F8F10BDCCB8002010B50349D1F8D40076
:101D70008047BFF34F8F10BDCCB8002010B503498A
:101D8000D1F8D8008047BFF34F8F10BDCCB80020EA
:101D900010B50349D1F8DC008047BFF34F8F10BD69
:101DA000CCB8002010B50349D1F8E0008047BFF35C
:101DB0004F8F10BDCCB8002010B50349D1F8E40016
:101DC0008047BFF34F8F10BDCCB8002010B503493A
:101DD000D1F8E8008047BFF34F8F10BDCCB800208A
:101DE00010B50349D1F8EC008047BFF34F8F10BD09
:101DF000CCB8002010B50349D1F8F0008047BFF3FC
:101E00004F8F10BDCCB8002010B50349D1F8F400B5
:101E10008047BFF34F8F10BDCCB8002010B50349E9
:101E2000D1F8F8008047BFF34F8F10BDCCB8002029
:101E300010B50349D1F8FC008047BFF34F8F10BDA8
:101E4000CCB8002010B50349D1F800018047BFF39A
:101E50004F8F10BDCCB8002010B50349D1F8040154
:101E60008047BFF34F8F10BDCCB8002010B5034999
:101E7000D1F808018047BFF34F8F10BDCCB80020C8
:101E800010B50349D1F80C018047BFF34F8F10BD47
:101E9000CCB8002010B50349D1F810018047BFF33A
:101EA0004F8F10BDCCB8002010B50349D1F81401F4
:101EB0008047BFF34F8F10BDCCB8002010B5034949
:101EC000D1F818018047BFF34F8F10BDCCB8002068
:101ED00010B50349D1F81C018047BFF34F8F10BDE7
:101EE000CCB8002010B50349D1F820018047BFF3DA
:101EF0004F8F10BDCCB8002010B50349D1F8240194
:101F00008047BFF34F8F10BDCCB8002010B50349F8
:101F1000D1F828018047BFF34F8F10BDCCB8002007
:101F200010B50349D1F82C018047BFF34F8F10BD86
:101F3000CCB8002010B50349D1F830018047BFF379
:101F40004F8F10BDCCB8002010B50349D1F8340133
:101F50008047BFF34F8F10BDCCB8002010B50349A8
:101F6000D1F838018047BFF34F8F10BDCCB80020A7
:101F700010B50349D1F83C018047BFF34F8F10BD26
:101F8000CCB8002010B50349D1F840018047BFF319
:101F90004F8F10BDCCB8002010B50349D1F84401D3
:101FA0008047BFF34F8F10BDCCB8002010B5034958
:101FB000D1F848018047BFF34F8F10BDCCB8002047
:101FC00010B50349D1F84C018047BFF34F8F10BDC6
:101FD000CCB8002010B50349D1F850018047BFF3B9
:101FE0004F8F10BDCCB8002010B50349D1F8540173
:101FF0008047BFF34F8F10BDCCB8002010B5034908
:10200000D1F858018047BFF34F8F10BDCCB80020E6
:1020100010B50349D1F85C018047BFF34F8F10BD65
:10202000CCB8002010B50349D1F860018047BFF358
:102030004F8F10BDCCB8002010B50349D1F8640112
:102040008047BFF34F8F10BDCCB8002010B50349B7
:10205000D1F868018047BFF34F8F10BDCCB8002086
:1020600010B50349D1F86C018047BFF34F8F10BD05
:10207000CCB8002010B50349D1F870018047BFF3F8
:102080004F8F10BDCCB8002010B50349D1F87401B2
:102090008047BFF34F8F10BDCCB8002010B5034967
:1020A000D1F878018047BFF34F8F10BDCCB8002026
:1020B00010B50349D1F87C018047BFF34F8F10BDA5
:1020C000CCB8002010B50349D1F880018047BFF398
:1020D0004F8F10BDCCB8002010B50349D1F8840152
:1020E0008047BFF34F8F10BDCCB8002010B5034917
:1020F000D1F888018047BFF34F8F10BDCCB80020C6
:1021000010B50349D1F88C018047BFF34F8F10BD44
:10211000CCB8002010B50349D1F890018047BFF337
:102120004F8F10BDCCB8002010B50349D1F89401F1
:102130008047BFF34F8F10BDCCB8002010B50349C6
:10214000D1F898018047BFF34F8F10BDCCB8002065
:1021500010B50349D1F89C018047BFF34F8F10BDE4
:10216000CCB8002010B50349D1F8A0018047BFF3D7
:102170004F8F10BDCCB8002010B50349D1F8A40191
:102180008047BFF34F8F10BDCCB8002010B5034976
:10219000D1F8A8018047BFF34F8F10BDCCB8002005
:1021A00010B50349D1F8AC018047BFF34F8F10BD84
:1021B000CCB8002010B50349D1F8B0018047BFF377
:1021C0004F8F10BDCCB8002010B50349D1F8B40131
:1021D0008047BFF34F8F10BDCCB8002010B5034926
:1021E000D1F8B8018047BFF34F8F10BDCCB80020A5
:1021F00010B50349D1F8BC018047BFF34F8F10BD24
:10220000CCB8002010B50349D1F8C0018047BFF316
:102210004F8F10BDCCB8002010B50349D1F8C401D0
:102220008047BFF34F8F10BDCCB8002010B50349D5
:10223000D1F8C8018047BFF34F8F10BDCCB8002044
:1022400010B50349D1F8CC018047BFF34F8F10BDC3
:10225000CCB8002010B50349D1F8D0018047BFF3B6
:102260004F8F10BDCCB8002010B50349D1F8D40170
:102270008047BFF34F8F10BDCCB8002010B5034985
:10228000D1F8D8018047BFF34F8F10BDCCB80020E4
:1022900010B50349D1F8DC018047BFF34F8F10BD63
:1022A000CCB8002010B50349D1F8E0018047BFF356
:1022B0004F8F10BDCCB8002010B50349D1F8E40110
:1022C0008047BFF34F8F10BDCCB8002010B5034935
:1022D000D1F8E8018047BFF34F8F10BDCCB8002084
:1022E00010B50349D1F8EC018047BFF34F8F10BD03
:1022F000CCB8002010B50349D1F8F0018047BFF3F6
:102300004F8F10BDCCB8002010B50349D1F8F401AF
:102310008047BFF34F8F10BDCCB8002010B50349E4
:10232000D1F8F8018047BFF34F8F10BDCCB8002023
:1023300010B50349D1F8FC018047BFF34F8F10BDA2
:10234000CCB8002010B552480468524800680128F3
:1023500004D104F0010008B1FEF792FF4D48001DC2
:102360000068012804D104F0020008B1FEF789FFDB
:10237000484808300068012804D104F0040008B17E
:10238000FEF780FF43480C300068012804D104F0B8
:10239000080008B1FEF777FF3E48103000680128BA
:1023A00004D104F0100008B1FEF76EFF3948143074
:1023B0000068012804D104F0200008B1FEF765FF91
:1023C000344818300068012804D104F0400008B1F6
:1023D000FEF75CFF2F481C300068012804D104F090
:1023E000800008B1FEF753FF2A482030006801281A
:1023F00004D104F4807008B1FEF74AFF2548243068
:102400000068012804D104F4007008B1FEF741FF10
:10241000204828300068012804D104F4806008B105
:10242000FEF738FF1B482C300068012804D104F463
:10243000006008B1FEF72FFF164830300068012811
:1024400004D104F4805008B1FEF726FF114834305F
:102450000068012804D104F4005008B1FEF71DFF04
:102460000C4838300068012804D104F4804008B1D9
:10247000FEF714FF07483C300068012804D104F43B
:10248000004008B1FEF70BFFBFF34F8F10BD0000F7
:102490005C120540800AA24270B5FE480468FE48FE
:1024A000D0F8B00B01282BD1FC48006840B9FC489B
:1024B0000068012804D104F0010008B1FEF774FEA1
:1024C000F6484030006848B9F548403000680128B7
:1024D00004D104F4807008B1FEF75EFEF148406854
:1024E00000F00116EF48C1684FF0011020EA010525
:1024F00006EA050020B104F4803008B1FEF750FE72
:10250000E948006B01282DD1E448001D006848B956
:10251000E348001D0068012804D104F0020008B15E
:10252000FEF743FEDD484430006848B9DC484430DB
:102530000068012804D104F4007008B1FEF72DFEF4
:10254000D848406800F00216D648C1684FF0021023
:1025500020EA010506EA050020B104F4803008B144
:10256000FEF71FFED148006B01282DD1CB48083063
:10257000006848B9CA4808300068012804D104F04E
:10258000040008B1FEF712FEC4484830006848B99C
:10259000C34848300068012804D104F4806008B1C1
:1025A000FEF7FCFDBF48406800F00416BD48C16856
:1025B0004FF0041020EA010506EA050020B104F4FA
:1025C000803008B1FEF7EEFDB948006B01282DD12F
:1025D000B2480C30006848B9B1480C300068012896
:1025E00004D104F0080008B1FEF7E1FDAB484C301F
:1025F000006848B9AA484C300068012804D104F4A6
:10260000006008B1FEF7CBFDA648406800F0081650
:10261000A448C1684FF0081020EA010506EA050049
:1026200020B104F4803008B1FEF7BDFDA148006878
:1026300001282CD1A048006840B9A04800680128B2
:1026400004D104F0100008B1FEF7BAFD9A484030FA
:10265000006848B9994840300068012804D104F462
:10266000805008B1FEF7A4FD9548006800F00116FF
:102670009348083001684FF0011020EA010506EA8E
:10268000050020B104F4003008B1FEF795FD8D4837
:10269000006B01282ED18848001D006848B9874882
:1026A000001D0068012804D104F0200008B1FEF7E5
:1026B00088FD81484430006848B979484430006852
:1026C000012804D104F4005008B1FEF772FD7C48E3
:1026D000006800F002167A48083001684FF00210D6
:1026E00020EA010506EA050020B104F4003008B133
:1026F000FEF763FD7448006B01282ED16E48083048
:10270000006848B96D4808300068012804D104F019
:10271000400008B1FEF756FD67484830006848B9E8
:102720005F4848300068012804D104F4804008B1B3
:10273000FEF740FD6248006800F00416604808306B
:1027400001684FF0041020EA010506EA050020B1F7
:1027500004F4003008B1FEF731FD5C48006B01283D
:102760002ED155480C30006848B954480C300068E8
:10277000012804D104F0800008B1FEF724FD4E4882
:102780004C30006848B946484C300068012804D1F4
:1027900004F4004008B1FEF70EFD4948006800F05F
:1027A00008164748083001684FF0081020EA010574
:1027B00006EA050020B104F4003008B1FEF7FFFC82
:1027C00043480068012809D14248006800F00F0022
:1027D00020B104F4802008B1FEF7F8FC3C48083032
:1027E0000068012809D13A48EC380068012804D172
:1027F00004F4002008B1FEF7E7FC3548001D00682E
:10280000012809D13248F0380068012804D104F4C5
:10281000801008B1FEF7D9FC4FF01C40C06800F0F2
:10282000800020B104F4800008B101F0CEFB2A48FA
:10283000C06F01280CD129488669456806EA050061
:1028400000F07F0020B104F4000008B1FEF77EFC28
:102850002348C06F01280ED1224806682148143849
:10286000056806EA050000F07F0020B104F08070E2
:1028700008B1FEF76CFC1C48C06F01283ED11B4814
:1028800006681A481438056806EA050000F07F005B
:1028900070B32EE0601205400000A6420002A6427E
:1028A0000001A642003005408013A642801BA642CC
:1028B0008023A642B08BA6420082A6420081A64297
:1028C000043405408093A642809BA64280A3A64282
:1028D00000832042100401400000A4420020054073
:1028E0000080A442182405400000A5421828054095
:1028F00004E004F0007008B1FEF72AFC0A48C06F3B
:1029000001280ED10948066808481438056806EA07
:10291000050000F07F0020B104F0806008B1FEF7F0
:1029200018FCBFF34F8F70BD0080A542182C0540E6
:1029300010B5324804683248D0F80802012808D19E
:1029400030480068012804D104F0010008B102F009
:1029500051FB2C4838380068012809D129484030FB
:102960000068012804D104F0020008B102F043FB22
:1029700025480068012809D12348783000680128DB
:1029800004D104F0040008B102F036FB1E484030C8
:102990000068012809D11C48B8300068012804D11A
:1029A00004F0080008B102F028FB1848007800F095
:1029B000010050B11548401C007800F0010020B122
:1029C00004F4001008B1FEF7EFFA1148008800F493
:1029D0008050B0F5805F04D104F4800008B101F0AC
:1029E000F3FA0C48006800F4403020B104F4000011
:1029F00008B101F061FFBFF34F8F10BD64120540B5
:102A00000000484280024842088248424040054057
:102A100000C404400494044070B5AA480468AA485D
:102A20000068012808D1A9480068012804D104F0F1
:102A3000010008B102F003FBA348001D0068012853
:102A400009D1A248001D0068012804D104F0020049
:102A500008B102F0F5FA9C4808300068012809D155
:102A60009A4808300068012804D104F0040008B135
:102A700002F0E7FA94480C300068012809D1934825
:102A80000C300068012804D104F0080008B102F0FD
:102A9000D9FA8D4810300068012809D18B481030D0
:102AA0000068012804D104F0100008B102F0CBFA4C
:102AB000854814300068012809D184481430006822
:102AC000012804D104F0200008B102F0BDFA7E48CC
:102AD00018300068012809D17C48183000680128A6
:102AE00004D104F0400008B102F0B0FA76481C307E
:102AF0000068012809D175481C300068012804D1FC
:102B000004F0800008B102F0A2FA6F48203000689B
:102B1000012809D16D4820300068012804D104F44F
:102B2000807008B102F091FA6948406D00F44030BD
:102B3000C6096748006F00F4C06506EA050020B1C9
:102B400004F4006008B102F083FA6148406D00F4BB
:102B50004020C6095E48006F00F4C05506EA050033
:102B600020B104F4805008B102F073FA59480068AB
:102B7000012808D158480068012804D104F48030A5
:102B800008B102F067FA5348001D0068012809D116
:102B90005148001D0068012804D104F4003008B138
:102BA00002F059FA4B4808300068012809D14A4818
:102BB00008300068012804D104F4802008B102F034
:102BC0004BFA44480C300068012809D142480C30C7
:102BD0000068012804D104F4002008B102F03DFA95
:102BE0003C4810300068012809D13B48103000688B
:102BF000012804D104F4801008B102F02FFA3548FE
:102C000014300068012809D13348143000680128C5
:102C100004D104F4001008B102F021FA2D48183054
:102C20000068012809D12C4818300068012804D117
:102C300004F4800008B102F014FA26481C30006841
:102C4000012809D124481C300068012804D104F46B
:102C5000000008B102F006FA1E4820300068012882
:102C600009D11D4820300068012804D104F080708B
:102C700008B102F0F5F91948006800F44030C609BF
:102C800016481C30006800F4C06506EA050020B153
:102C900004F0006008B102F0E6F91048006800F4A2
:102CA0004020C6090D481C30006800F4C05506EAF3
:102CB000050020B104F0805008B102F0D5F9BFF34F
:102CC0004F8F70BD68120540800A3042000E3042BE
:102CD00000800140808A3042008E3042548401409E
:102CE00070B55B4804685B480068012808D15A4801
:102CF0000068012804D104F0010008B102F0B5F920
:102D00005448001D0068012809D15348001D00687F
:102D1000012804D104F0020008B102F0A7F94D48DF
:102D200008300068012809D14B48083000680128A4
:102D300004D104F0040008B102F099F945480C30C0
:102D40000068012809D144480C300068012804D1EA
:102D500004F0080008B102F08BF93E48103000681A
:102D6000012809D13C4810300068012804D104F042
:102D7000100008B102F07DF93648143000680128CF
:102D800009D1354814300068012804D104F020002E
:102D900008B102F06FF92F4818300068012809D1F6
:102DA0002D4818300068012804D104F0400008B113
:102DB00002F062F927481C300068012809D1264832
:102DC0001C300068012804D104F0800008B102F032
:102DD00054F9204820300068012809D11E482030CD
:102DE0000068012804D104F4807008B102F043F9AE
:102DF0001A48006800F44030C60918481C300068C2
:102E000000F4C06506EA050040B104F4006008B1B2
:102E1000012000E0002008B102F030F90F480068FE
:102E200000F44020C6090D481C30006800F4C0556D
:102E300006EA050040B104F4805008B1012000E02A
:102E4000002008B102F01BF9BFF34F8F70BD0000E6
:102E50006C120540800A3142000E31425488014014
:102E600070B5BE480468BE480069012808D1BC4856
:102E70008069012804D104F0010008B102F001F9D1
:102E8000B7484069012808D1B548C069012804D174
:102E900004F0020008B102F0F5F8B2480688B14823
:102EA0009038B0F89C5006EA0500C0B220B104F09A
:102EB000040008B102F0E4F8AB480069012808D129
:102EC000A9488069012804D104F0080008B102F083
:102ED000DBF8A5484069012808D1A348C06901284A
:102EE00004D104F0100008B102F0CFF89F48068822
:102EF0009E480C30058806EA0500C0B220B104F0F7
:102F0000200008B102F0BFF899480069012808D1F3
:102F100097488069012804D104F0400008B102F00C
:102F2000B6F893484069012808D19148C069012842
:102F300004D104F0800008B102F0AAF88D48068898
:102F40008C480C30058806EA0500C0B220B104F4B4
:102F5000807008B102F09AF887480069012808D10A
:102F600085488069012804D104F4007008B102F09A
:102F700091F881484069012808D17F48C06901283B
:102F800004D104F4806008B102F085F87B4806881B
:102F90007A480C30058806EA0500C0B220B104F476
:102FA000006008B102F075F875480069012808D181
:102FB00073488069012804D104F4805008B102F0FC
:102FC0006CF86F484069012808D16D48C069012834
:102FD00004D104F4005008B102F060F86948068892
:102FE00068489038B0F89C5006EA0500C0B220B19D
:102FF00004F4804008B102F04FF8634800690128EA
:1030000008D161488069012804D104F4803008B1F6
:1030100002F046F85C484069012808D15A48C06966
:10302000012804D104F4003008B102F03AF85748FE
:10303000068856480C30058806EA0500C0B220B163
:1030400004F4802008B102F02AF8514800680128F1
:1030500010D150488069504900EA01064D48406946
:1030600000EA010506EA050020B104F4002008B1D9
:1030700002F052FC49480668C56805F0200038B1E6
:1030800006F00B0020B104F4800008B102F030FC1F
:1030900005EA060000F0200020B104F4000008B1A9
:1030A00002F027FC05EA060000F0800020B104F0E1
:1030B000807008B102F020FC05EA060000F0400034
:1030C00020B104F0007008B102F015FC05F0020018
:1030D00038B106F4807020B104F0806008B102F0CD
:1030E00009FC2F4806682E480C30056805F02000C2
:1030F00038B106F00B0020B104F0006008B102F016
:10310000FCFB05EA060000F0200020B104F080502E
:1031100008B102F0F3FB05EA060000F0800020B1E0
:1031200004F0005008B102F0ECFB05EA060000F0E4
:10313000400020B104F0804008B102F0E1FB05F04E
:10314000020038B106F4807020B104F0004008B1EC
:1031500002F0D5FBBFF34F8F70BD00007C1205401D
:1031600020102A429050014020902A429054014061
:1031700020102B429058014020902B42905C01403F
:1031800020102C429060014020902C42906401401D
:103190000001804300000C40FBFC7CF700D00140A4
:1031A00000D4014070B59A4805689A480468C6681A
:1031B00006F0200038B104F00B0020B105F001004A
:1031C00008B102F09FFB06EA040000F0200020B1E5
:1031D00005F0020008B102F096FB06EA040000F0D8
:1031E000800020B105F0040008B102F08FFB06EA70
:1031F000040000F0400020B105F0080008B102F022
:1032000084FB06F0020038B104F4807020B105F0B0
:10321000100008B102F078FB7F4804687E480C304B
:10322000066806F0200038B104F00B0020B105F06C
:10323000200008B102F06BFB06EA040000F0200059
:1032400020B105F0400008B102F062FB06EA04007C
:1032500000F0800020B105F0800008B102F05BFBB7
:1032600006EA040000F0400020B105F4807008B1C7
:1032700002F050FB06F0020038B104F4807020B177
:1032800005F4007008B102F044FB644844684669E4
:1032900004F4806038B106F0800020B105F40060CD
:1032A00008B100F097FE04F4007038B106F0200079
:1032B00020B105F4805008B100F08DFE04F40060E8
:1032C00038B106F0020020B905F4005008B100F052
:1032D00080FE04F4807038B106F01D0020B105F4C2
:1032E000804008B100F074FE4D4804684C4810302E
:1032F000066804F4806038B106F0800020B105F45F
:10330000803008B100F06AFE04F4007038B106F0B5
:10331000200020B105F4003008B100F060FE04F494
:10332000006038B106F0020020B905F4802008B131
:1033300000F053FE04F4807038B106F01D0020B197
:1033400005F4002008B100F047FE3648446846699D
:1033500004F4806038B106F0800020B105F400105C
:1033600008B100F03FFE04F4007038B106F0200010
:1033700020B105F4800008B100F035FE04F40060CF
:1033800038B106F0020020B905F4000008B100F0E1
:1033900028FE04F4807038B106F01D0020B105F05D
:1033A000807008B100F01CFE1F4804681E481030F1
:1033B000066804F4806038B106F0800020B105F0A2
:1033C000806008B100F012FE04F4007038B106F01D
:1033D000200020B105F0006008B100F008FE04F400
:1033E000006038B106F0020020B905F0805008B145
:1033F00000F0FBFD04F4807038B106F01D0020B130
:1034000005F0005008B100F0EFFDBFF34F8F70BD25
:1034100080120540001002400014024000C001402C
:1034200004C40140000002400404024070B5884812
:1034300005688848048B05F0010038B104F01000DD
:1034400020B104F0400008B101F0D8FD05F0020001
:1034500038B104F0200020B104F0800008B101F080
:10346000CEFD7C48848B05F0040038B104F01000D8
:1034700020B104F0400008B101F0C2FD05F00800E1
:1034800038B104F0200020B104F0800008B101F050
:10349000B8FD7048048C05F0100038B104F010003D
:1034A00020B104F0400008B101F0ACFD05F02000AF
:1034B00038B104F0200020B104F0800008B101F020
:1034C000A2FD64484830048805F0400038B104F497
:1034D000807020B104F4007008B101F095FD05F092
:1034E000800038B104F4005020B104F4804008B1E9
:1034F00001F08BFD5748A430048805F4807038B182
:1035000004F0010020B904F0100008B101F07EFDC4
:1035100005F4007038B104F0020020B904F48070A2
:1035200008B101F074FD05F4806038B104F00400C6
:1035300020B904F4805008B101F06AFD46480488BF
:1035400005F4803038B104F0100020B104F04000E0
:1035500008B101F053FD05F4003038B104F020004B
:1035600020B104F0800008B101F049FD3A48001D87
:10357000048805F4802038B104F0100020B104F074
:10358000400008B101F047FD05F4002038B104F017
:10359000200020B104F0800008B101F03DFD2E486C
:1035A0000830048805F4801038B104F0100020B110
:1035B00004F0400008B101F030FD05F4001038B10E
:1035C00004F0200020B104F0800008B101F026FDD5
:1035D00021483030048805F4800038B104F480704C
:1035E00020B104F4007008B101F019FD05F40000E9
:1035F00038B104F4005020B104F4804008B101F067
:103600000FFD15488C30048805F0807038B104F047
:10361000010020B904F0100008B101F002FD05F02E
:10362000007038B104F0020020B904F4807008B1D1
:1036300001F0F8FC05F0806038B104F0040020B916
:1036400004F4805008B101F0EEFCBFF34F8F70BD61
:1036500084120540007001401848024070B5464889
:1036600005684648048805F0010038B104F01000F0
:1036700020B104F0400008B101F0D6FC05F00200D2
:1036800038B104F0200020B104F0800008B101F04E
:10369000CCFC3A48001D048805F0040038B104F061
:1036A000100020B104F0400008B101F0BFFC05F0AB
:1036B000080038B104F0200020B104F0800008B107
:1036C00001F0B5FC2D480830048805F0100038B131
:1036D00004F0100020B104F0400008B101F0A8FC93
:1036E00005F0200038B104F0200020B104F0800083
:1036F00008B101F09EFC21483030048805F04000FC
:1037000038B104F4807020B104F4007008B101F005
:1037100091FC05F0800038B104F4005020B104F4AD
:10372000804008B101F087FC14488C30048805F40F
:10373000807038B104F0010020B904F0100008B125
:1037400001F064FC05F4007038B104F0020020B907
:1037500004F4807008B101F070FC05F4806038B1A9
:1037600004F0040020B904F4805008B101F066FCB4
:10377000BFF34F8F70BD000088120540184C024007
:1037800070B57A4804687A48006800F00F067848F7
:103790000830006800F00F0506EA050020B104F0CB
:1037A000400008B1FDF768FD71482030006800F066
:1037B0000F066F482830006800F00F0506EA050084
:1037C00020B104F0800008B1FDF757FD6848403093
:1037D000006800F00F0666484830006800F00F05EA
:1037E00006EA050020B104F4807008B1FDF746FD3B
:1037F0005F486030006800F00F065D486830006880
:1038000000F00F0506EA050020B104F4007008B1CD
:10381000FDF735FD57484068012809D155488030EB
:103820000068012804D104F4803008B1FDF7E6FFF8
:103830005048C068012809D14E48843000680128EA
:1038400004D104F4003008B1FDF7D7FF49480069FE
:10385000012809D14848806800F0030020B104F431
:10386000802008B1FDF7C8FF44484068012809D10D
:10387000424880300068012804D104F4002008B1D7
:10388000FDF7BFFF3D48C068012809D13B4884309F
:103890000068012804D104F4801008B1FDF7B0FFDE
:1038A00036480069012809D13548006800F0030056
:1038B00020B104F4001008B1FDF7A1FF31484068C1
:1038C000012809D12F4880300068012804D104F470
:1038D000800008B1FDF798FF2A48C068012809D187
:1038E000284884300068012804D104F4000008B19D
:1038F000FDF789FF23480069012809D12248806823
:1039000000F0030020B104F0807008B1FDF77AFFE9
:103910001E484068012809D11C48803000680128F1
:1039200004D104F0007008B1FDF771FF1748C068BA
:10393000012809D1154884300068012804D104F019
:10394000806008B1FDF762FF10480069012809D1C5
:103950000F48006800F0030020B104F0006008B1D7
:10396000FDF753FFBFF34F8F70BD00008C12054071
:103970000C7C014000003C4200E0014000803C42E1
:1039800008E401400000444200200240008044421C
:103990000824024070B58A4804688A48D0F8980024
:1039A000012808D188480068012804D104F01000DB
:1039B00008B1FDF716FF83489C300068012809D143
:1039C0008148001D0068012804D104F0200008B1DE
:1039D000FDF709FF7B488C300068012809D17A483F
:1039E0000C380068012804D104F0400008B1FDF74C
:1039F000F9FE76484068764900EA01067348C069D6
:103A000000EA010506EA050020B104F0800008B1D3
:103A1000FDF7E6FE6F480068012808D16E4800688F
:103A2000012804D104F4807008B1FDF7DEFE694876
:103A3000001D0068012809D16748001D00680128A1
:103A400004D104F4007008B1FDF7D1FE61480C38D0
:103A50000068012809D160480C380068012804D1A9
:103A600004F4806008B1FDF7C1FE5C480068584965
:103A700000EA010659481830006800EA010506EA24
:103A8000050020B104F4006008B1FDF7ADFE544814
:103A90000068012808D153480068012804D104F4C3
:103AA000805008B1FDF7A5FE4D48001D00680128B3
:103AB00009D14C48001D0068012804D104F40050CD
:103AC00008B1FDF798FE46480C380068012809D176
:103AD00044480C380068012804D104F4804008B13F
:103AE000FDF788FE40480068394900EA01063E4873
:103AF0001830006800EA010506EA050020B104F468
:103B0000004008B1FDF774FE3848007800F003006B
:103B100001280AD13648007800F00200022804D1BA
:103B200004F4003008B100F033FA3048007800F0B7
:103B3000300010280AD12E48007800F020002028FC
:103B400004D104F4802008B100F023FA2948006869
:103B5000012809D1274880300068012804D104F4E5
:103B6000801008B1FDF711FC2248001D00680128F3
:103B700009D1204884300068012804D104F40010E1
:103B800008B1FDF701FC1B4808300068012809D185
:103B9000184888300068012804D104F4800008B176
:103BA000FDF7F4FB1448406800F4403020B104F401
:103BB000000008B101F0B1FEBFF34F8F70BD0000EF
:103BC0009012054000009C4298039C4200E0044093
:103BD0001752F00098809C4298839C4204E4044071
:103BE00098009D4298039D4204E804401344054018
:103BF000E1400540008390420090044010B53B48EE
:103C000004683B480068012809D139482038006819
:103C1000012804D104F0010008B1FCF7ECFB3448A2
:103C2000001D0068012809D131481C3800680128AE
:103C300004D104F0020008B1FCF7DEFB2D48006A55
:103C4000012809D12C480068C0F3100020B104F00D
:103C5000040008B1FCF7CEFB2648006A012809D110
:103C600025480068C0F3100020B104F0080008B136
:103C7000FCF7C3FB21480068012809D11F48203800
:103C80000068012804D104F0100008B1FCF7B7FB6C
:103C90001A48001D0068012809D118481C3800681E
:103CA000012804D104F0200008B1FCF7C9FC144835
:103CB000006A012809D113480068C0F3080020B148
:103CC00004F0400008B1FCF799FB0D48006A012898
:103CD00009D10C480068C0F3080020B104F080004E
:103CE00008B1FCF7AEFCBFF34F8F10BD9412054036
:103CF000E008804200148042B0000440E088804226
:103D000000948042B00404402DE9F84F3D48D0F8BB
:103D100000B00BF00400D0B13B4807883A480830A7
:103D2000B0F80080801FB0F8009037480A30B0F833
:103D300000A007EA080040F2F711084028B909EA94
:103D40000A0040F27F11084008B100F03FF90BF083
:103D50002000A8B12D48078EB0F83880B0F8329016
:103D6000B0F83AA007EA080040F2F711084028B975
:103D700009EA0A0040F27F11084008B100F027F973
:103D80000BF04000A8B322480678401E007800904F
:103D90001F48401C04781E481A30057805F02000A2
:103DA00028BB06F0010010BB0098304000F0FE0078
:103DB000E8B904F0010010B104F00200B8B904F051
:103DC000040010B104F0080088B904F0100010B12C
:103DD00004F0200058B905F0080010B105F01000FB
:103DE00028B905F0400028B105F0800010B101208D
:103DF00001E003E0002008B1FCF7BEFDBFF34F8FE8
:103E0000BDE8F88F9812054030FC064000000740DE
:103E1000A504074010B5044604F0010048B100BFF6
:103E200040F223101A49086043F21020086000BFD6
:103E300000BF04F0020028B100BF1648164908610F
:103E400000BF00BF04F0040030B100BF4AF20150CF
:103E50001249088000BF00BF04F0100018B14AF2F8
:103E6000085000F0A5F804F0400018B14AF20350E1
:103E700000F09EF804F0800040B100BF77200849B0
:103E8000086007490831086000BF00BF10BD00008E
:103E9000000401400100A5A500800440FC3B054052
:103EA0000408054010B5044604F0010028B100BF25
:103EB00000201949086000BF00BF04F0020028B1CB
:103EC00000BF16481649086100BF00BF04F0040097
:103ED00030B100BF4FF425401249088000BF00BF39
:103EE00004F0100018B14AF2085000F053F804F042
:103EF000400018B14AF2035000F04CF804F0800082
:103F000040B100BF762008490860074908310860C1
:103F100000BF00BF10BD0000000401400000A5A5C7
:103F200000800440FC3B05400408054010B500BF7C
:103F30000F48008800F00200022800D104E040F29F
:103F4000AD410CA0FDF706F900BF0948001D00783F
:103F500000F0C00040F00F000549091D0870102056
:103F60000349113108701E20FDF7F6F8002010BD3E
:103F7000FE4305406472697665725C7372635C68C7
:103F80006333325F6C6C5F7077632E6300000000F8
:103F90007047704704490988814341F42541034A29
:103FA000A2F8FE1370470000FE43054000400540A4
:103FB000034909880143034AA2F8FE137047000031
:103FC000FE4305400040054070477047704770470A
:103FD0007047704770477047704770477047704729
:103FE0007047704770477047704770477047704719
:103FF00070B504460D4600BF1B48844208D01B48DC
:10400000844205D01A48844202D01A48844200D122
:1040100004E040F2622118A0FDF79CF800BF00BF49
:104020000DB1012D00D104E040F2632112A0FDF793
:1040300091F800BF00BF606900F0040000B105B94D
:1040400004E04FF419710CA0FDF784F800BF012DB6
:1040500004D1606840F04000606003E0606820F0D8
:104060004000606070BD000000C0014000C401401D
:1040700000000240000402406472697665725C735D
:1040800072635C686333325F6C6C5F7370692E635C
:104090000000000001466FF0020021B100220A601A
:1040A0004A608A600020704770B505460C466FF084
:1040B000020600BF6748854208D06748854205D0A0
:1040C0006648854202D06648854200D104E040F24D
:1040D000E92164A0FDF73EF800BF002C7CD000BFB2
:1040E0002068D8B12068B0F1805F17D02068B0F1A7
:1040F000005F13D02068B0F1405F0FD02068B0F1AE
:10410000804F0BD02068B0F1A04F07D02068B0F1ED
:10411000C04F03D02068B0F1E04F00D104E04FF46D
:104120003B7150A0FDF716F800BF00BF6068D8B122
:104130006068B0F1807F17D06068B0F1007F13D065
:104140006068B0F1407F0FD06068B0F1806F0BD035
:104150006068B0F1A06F07D06068B0F1C06F03D0A5
:104160006068B0F1E06F00D104E040F2ED213DA0C5
:10417000FCF7F0FF00BF00BFA068D8B1A068B0F5A1
:10418000801F17D0A068B0F5001F13D0A068B0F54D
:10419000401F0FD0A068B0F5800F0BD0A068B0F51D
:1041A000A00F07D0A068B0F5C00F03D0A068B0F58D
:1041B000E00F00D104E040F2EE212AA0FCF7CAFF94
:1041C00000BF206848B9A86920F40050A861E868D9
:1041D00020F0E040E8600CE03AE0E86820F0E040E1
:1041E000216801F0E0410843E860A86940F400500C
:1041F000A861606840B9A86920F48040A861E868B7
:1042000020F0E060E8600BE0A86940F48040A8611D
:10421000E86820F0E060616801F0E0610843E86070
:10422000A06840B9A86920F40040A861E86820F4BB
:10423000E000E8600BE0A86940F40040A861E8688D
:1042400020F4E000A16801F4E0010843E8600026E2
:10425000304670BD00C0014000C401400000024073
:10426000000402406472697665725C7372635C6814
:104270006333325F6C6C5F7370692E630000000003
:1042800070B505460C466FF0020600BF9D4885429A
:1042900008D09D48854205D09C48854202D09C4864
:1042A000854200D104E040F2ED119AA0FCF752FFE4
:1042B00000BF002C72D000BF206810B12068012818
:1042C00000D104E04FF4F87192A0FCF743FF00BF67
:1042D00000BF606810B16068022800D104E040F2BD
:1042E000F1118CA0FCF736FF00BF00BFA06810B131
:1042F000A068082800D104E04FF4F97185A0FCF70C
:1043000029FF00BF00BFE06818B1E068B0F5805F2A
:1043100000D104E040F2F3117EA0FCF71BFF00BFC8
:1043200000BF206938B12069B0F5004F03D0206983
:10433000B0F5404F00D104E04FF4FA7175A0FCF7DE
:1043400009FF00BF00BF606940B16069012805D066
:104350006069022802D06069032800D104E040F2BD
:10436000F5116CA0FCF7F6FE00BF00BFA069A0B17C
:10437000A069042811D0A06908280ED0A0690C28D3
:104380000BD0A069102808D0A069142805D0A06916
:10439000182802D0A0691C2801D105E0AFE04FF435
:1043A000FB715CA0FCF7D6FE00BF00BFE069D8B38C
:1043B000E069B0F5807F37D0E069B0F5007F33D099
:1043C000E069B0F5407F2FD0E069B0F5806F2BD069
:1043D000E069B0F5A06F27D0E069B0F5C06F23D0D9
:1043E000E069B0F5E06F1FD0E069B0F5006F1BD059
:1043F000E069B0F5106F17D0E069B0F5206F13D009
:10440000E069B0F5306F0FD0E069B0F5406F0BD0C8
:10441000E069B0F5506F07D0E069B0F5606F03D088
:10442000E069B0F5706F00D104E040F2F71139A0F7
:10443000FCF790FE00BF00BF206A18B1206AB0F5FB
:10444000805F00D104E04FF4FC7132A0FCF782FEE3
:1044500000BF00BF606A10B1606A802800D104E02C
:1044600040F2F9112BA0FCF775FE00BF00BFA06A57
:1044700040B1A06A012805D0A06A022802D0A06A33
:10448000032800D104E04FF4FD7122A0FCF762FE86
:1044900000BFA068082803D1E068B0F5805F2ED087
:1044A0002068012806D1A06820B9606938B3606926
:1044B000022824D0D4E900010843A1680843616AB6
:1044C0000843E168084321690843686094F82810AC
:1044D000E86861F30100E860A068082808D1D4E921
:1044E00005010843E1690843216A0843A86105E022
:1044F000E16960690843216A0843A86100263046E3
:1045000070BD000000C0014000C401400000024036
:10451000000402406472697665725C7372635C6861
:104520006333325F6C6C5F7370692E630000000050
:1045300070B504460D4600BF1448844208D01448A4
:10454000844205D01348844202D01348844200D1EB
:1045500004E040F2D12111A0FCF7FCFD00BF00BF38
:104560000DB1012D00D104E040F2D2210BA0FCF7E7
:10457000F1FD00BF012D04D1606840F4005060607F
:1045800003E0606820F40050606070BD00C001402E
:1045900000C40140000002400004024064726976D9
:1045A00065725C7372635C686333325F6C6C5F73FB
:1045B00070692E630000000070B504460D4600BF10
:1045C0002348844208D02348844205D022488442AC
:1045D00002D02248844200D104E04FF45B7120A055
:1045E000FCF7B8FD00BF00BFB5F5807F08D0B5F57A
:1045F000007F05D0B5F5806F02D0B5F5006F00D112
:1046000004E040F26D3116A0FCF7A4FD00BFB5F543
:10461000807F09D0B5F5007F08D0B5F5806F07D051
:10462000B5F5006F08D105E0002607E0202605E07B
:10463000402603E0602601E0002600BF00BFA0691D
:1046400020F0E00006F0E0010843A06170BD00002A
:1046500000C0014000C401400000024000040240CC
:104660006472697665725C7372635C686333325F2F
:104670006C6C5F7370692E630000000070B50446B7
:104680000D4600BF1348844208D01348844205D029
:104690001248844202D01248844200D104E040F221
:1046A000C12110A0FCF756FD00BF00BF1DB1102DA9
:1046B00001D0202D00D104E040F2C22109A0FCF776
:1046C00049FD00BF606820F0300005F0300108436C
:1046D000606070BD00C0014000C4014000000240A5
:1046E000000402406472697665725C7372635C6890
:1046F0006333325F6C6C5F7370692E63000000007F
:1047000070B504460D46164600BF1E48844208D0C8
:104710001D48844205D01D48844202D01C48844272
:1047200000D104E040F231311AA0FCF713FD00BFC4
:1047300000BFB5F5807F08D0B5F5007F05D0B5F591
:10474000806F02D0B5F5006F00D104E040F2323145
:1047500010A0FCF7FFFC00BF00BF012E00D006B97F
:1047600004E040F233310BA0FCF7F4FC00BF012E53
:1047700003D1E0682843E06002E0E068A843E0601D
:1047800070BD000000C0014000C4014000000240B4
:10479000000402406472697665725C7372635C68DF
:1047A0006333325F6C6C5F7370692E6300000000CE
:1047B00001466FF0020089B100220A604A600822B7
:1047C0008A600022CA600A614A6108228A61D201B5
:1047D000CA6100220A624A628A62002070470000B1
:1047E0002DE9F04704460F4690464FF0000900BF00
:1047F00024B144F00F000F2800D103E0C72126A008
:10480000FCF7A8FC00BF00BF072F00D803E0C821B9
:1048100021A0FCF79FFC00BF00BFB8F1070F00D834
:1048200003E0C9211CA0FCF795FC00BF00BF214894
:104830000068772800D103E0CA2117A0FCF78AFCA2
:1048400000BF24E004F00100E0B14FEAC960050EAA
:10485000281DC6B207FA06F008FA05F10843072139
:10486000B1400722AA40114308400721B140072266
:10487000AA4011430F4A121F12688A4310430D4980
:10488000091F0860640809F1010000F0FF09002C0D
:10489000D8D1BDE8F08700006472697665725C73F8
:1048A00072635C686333325F6C6C5F7372616D2E30
:1048B0006300000004080540704700007FB505460E
:1048C0000C460026B84800680390B748406802903C
:1048D000B54880680190B448C068009000BF04F0FB
:1048E000E060E8B104F0E060B0F1807F18D004F03F
:1048F000E060B0F1007F13D004F0E060B0F1407FE1
:104900000ED004F0E060B0F1806F09D004F0E060F8
:10491000B0F1A06F04D004F0E060B0F1C06F00D13E
:1049200004E040F2A121A1A0FCF714FC00BF00BFED
:1049300004F07000B8B104F07000102813D004F037
:10494000700020280FD004F0700030280BD004F045
:104950007000402807D004F07000502803D004F005
:104960007000602800D104E040F2A2218FA0FCF783
:10497000F1FB00BF00BF04F4E020E8B104F4E02044
:10498000B0F5803F18D004F4E020B0F5003F13D01C
:1049900004F4E020B0F5403F0ED004F4E020B0F580
:1049A000802F09D004F4E020B0F5A02F04D004F447
:1049B000E020B0F5C02F00D104E040F2A3217BA09D
:1049C000FCF7C8FB00BF00BF04F4E000E8B104F44A
:1049D000E000B0F5801F18D004F4E000B0F5001F2F
:1049E00013D004F4E000B0F5401F0ED004F4E00052
:1049F000B0F5800F09D004F4E000B0F5A00F04D0AA
:104A000004F4E000B0F5C00F00D104E04FF42971C8
:104A100066A0FCF79FFB00BF00BF04F00700B8B121
:104A200004F00700012813D004F0070002280FD07B
:104A300004F0070003280BD004F00700042807D077
:104A400004F00700052803D004F00700062800D171
:104A500004E040F2A52155A0FCF77CFB00BF00BF9D
:104A600004F4E060E8B104F4E060B0F5807F18D0B1
:104A700004F4E060B0F5007F13D004F4E060B0F51A
:104A8000407F0ED004F4E060B0F5806F09D004F4EC
:104A9000E060B0F5A06F04D004F4E060B0F5C06F42
:104AA00000D104E040F2A62140A0FCF753FB00BF78
:104AB00000BF04F4E040E8B104F4E040B0F5805FEA
:104AC00018D004F4E040B0F5005F13D004F4E040E7
:104AD000B0F5405F0ED004F4E040B0F5804F09D04F
:104AE00004F4E040B0F5A04F04D004F4E040B0F589
:104AF000C04F00D104E040F2A7212CA0FCF72AFB14
:104B000000BF00BF3048284000B104E04FF42A71D4
:104B100026A0FCF71FFB00BF00BF2C48008800F058
:104B2000010000B104E040F2A92120A0FCF712FB33
:104B300000BF2748007800F00700052817D101269C
:104B400000BF1948006900F0010000B104E04FF413
:104B50002C7116A0FCF7FEFA00BF1E48124908602F
:104B6000C01248608860C8601E20FCF7F5FA18483B
:104B70002638006AA84304EA050108431449263987
:104B800008621E20FCF7E8FA012E0BD106490398B3
:104B9000086002984860019888600098C8601E20EC
:104BA000FCF7DAFA7FBD0000008004406472697689
:104BB00065725C7372635C686333325F6C6C5F63F5
:104BC0006C6B2E630000000077777707FE4305408B
:104BD00026400540EEFAFFFF7FB504460025304829
:104BE000006803902E48406802902D48806801902C
:104BF0002B48C068009000BF4CB1012C07D0022C9C
:104C000005D0032C03D0042C01D0052C00D104E0E6
:104C100040F2372123A0FCF79DFA00BF00BF2848CF
:104C2000008800F0010000B104E04FF40E711DA0F7
:104C3000FCF790FA00BF2348007800F00700052831
:104C400001D0052C17D1012500BF1548006900F0DF
:104C5000010000B104E04FF4107112A0FCF77AFAE1
:104C600000BF19480E490860C01248608860C860DB
:104C70001E20FCF771FA134804701E20FCF76CFA32
:104C8000012D0BD1064903980860029848600198ED
:104C900088600098C8601E20FCF75EFA7FBD0000A7
:104CA000008004406472697665725C7372635C684C
:104CB0006333325F6C6C5F636C6B2E6300000000CB
:104CC000FE43054026400540EEFAFFFF2DE9F04186
:104CD00048480078401C4749087008460078022878
:104CE00079D10020087044480078012804D00228B7
:104CF00061D0032869D128E03F4841683F48806877
:104D0000401E814208D302203B4908703C4800689D
:104D1000401E3B49086058E038481C30384A126849
:104D200050F822103748FBF7ADFB07464FF08041A3
:104D3000FBF7A8FB0646FBF7FCFB2F490881304830
:104D40000068401C2E4908603FE02B4841682B4812
:104D50000069401E814215D3002202212A4800F03A
:104D60000BFC00224FF48021274800F0E9FA274984
:104D700022481C30FBF7C7FA0020214908601E4971
:104D8000087022E01D481C301D4A126850F822109D
:104D90001C48FBF777FB07464FF08041FBF772FB9F
:104DA0000646FBF7C6FB1449088115480068401EFB
:104DB0001349086009E0104840681049C9688842F2
:104DC00002D303200C49087000BF00BF0A484068A6
:104DD000401C094948600C4800F0B2F904460648F6
:104DE0000089204485B22A460221074800F026FCAB
:104DF000BDE8F0810E80FF1FC0B800202480FF1F97
:104E00001080FF1F20BCBE4C0058014080380100BC
:104E10002DE9F04705460E4617461C4633480078F4
:104E200010B10020BDE8F0873A4631462846FCF72D
:104E3000CBF808B90020F5E7002C08DA64424021DD
:104E40000220FCF79DFBFF202949087006E0402165
:104E50000220FCF73DFC01202549087025488068A8
:104E6000B4EB400F08DB23480461006921498968DD
:104E7000401A2049C86004E002201F490870002041
:104E8000D0E71A4800210160416081600120174984
:104E90000870002048601748C1691848FBF7F2FA0B
:104EA00081464FF08041FBF7EDFA8046FBF741FB6E
:104EB0000E4908810021124800F002FC0B480289CB
:104EC00002210F4800F0BAFB0948007848B10122DE
:104ED00002210B4800F050FB01229104084800F029
:104EE0002FFA01200749087000BF9BE7C0B80020D7
:104EF0000C80FF1F2480FF1F0080FF1F20BCBE4CC2
:104F0000005801400D80FF1F10B580210220FCF7E2
:104F1000DFFB10BD70B52B4D2D6805F001051DB1EF
:104F2000294D2A4E356002E0294D284E3560294D25
:104F30002D7805F00700062840D2DFE800F00308CE
:104F40000C11151A214D2D68234E356037E0234D85
:104F5000214E356033E04FF400451F4E35602EE0A2
:104F60001E4D1D4E35602AE04FF400451A4E356047
:104F700025E0184DDA352D68C5F30822154D263D7C
:104F8000D5F800512B0F134DDA352D6805F01F04AD
:104F9000104D263DD5F8005105F080050DB90F499B
:104FA00001E00A4D2968651CB1FBF5F5561C7543F7
:104FB0005E1CB5FBF6F5084E356000E000BF00BF93
:104FC00070BD0000840601400024F400D0BA002027
:104FD000002D310126400540CCBA002000127A0095
:104FE00000B5FFF797FF00200149086000BD0000F1
:104FF00008ED00E070477047704770477047704792
:1050000070477047704770477047704770477047E8
:1050100070477047704770477047704770477047D8
:1050200070477047704770477047704770477047C8
:1050300070477047704770477047704770477047B8
:1050400070477047704770477047704770477047A8
:105050007047704770477047704770477047704798
:105060007047704770477047704770477047704788
:105070007047704770477047704770477047704778
:105080007047704770477047704770477047704768
:105090007047704770477047704770477047704758
:1050A0007047704770B504460D4600BF16488442ED
:1050B0000ED0164884420BD01548844208D01548BB
:1050C000844205D01448844202D01448844206D158
:1050D0002DB1134828431249884200D104E040F220
:1050E000144110A0FCF736F800BF94F8810000F0DE
:1050F0003F00C021A943084384F881006FEA1540AE
:10510000C0B2A4F89C0070BD0050014000540140A2
:1051100000580140005C0140006001400064014013
:10512000C000FF006472697665725C7372635C68CC
:105130006333325F6C6C5F746D72612E63000000CC
:1051400010B5044600BF0D4884420ED00C4884427E
:105150000BD00C48844208D00B48844205D00B4841
:10516000844202D00A48844200D104E040F2733104
:1051700008A0FBF7EFFF00BF208810BD00500140E2
:105180000054014000580140005C014000600140B3
:10519000006401406472697665725C7372635C6876
:1051A0006333325F6C6C5F746D72612E630000005C
:1051B00070B505460C466FF0020600BF53488542A5
:1051C0000ED0534885420BD05248854208D05248F1
:1051D000854205D05148854202D05148854200D1D0
:1051E00004E04FF48B714FA0FBF7B4FF00BF002C1D
:1051F00077D000BF207810B12078012800D104E0DA
:105200004FF48C7147A0FBF7A5FF00BF2078002862
:1052100049D100BFA07810B1A078042800D104E0E3
:1052200040F21B113FA0FBF795FF00BF00BFE078E5
:1052300010B1E078022800D104E04FF48E7139A05B
:10524000FBF788FF00BF00BF6078E8B160781028E6
:105250001AD06078202817D06078302814D0607871
:10526000402811D0607850280ED0607860280BD08C
:105270006078702808D06078802805D06078902801
:1052800002D06078A02800D104E040F21D1125A0D2
:10529000FBF760FF00BFA078E1780843617808431E
:1052A00085F880002AE000BFA08828B1A08841F6D8
:1052B000FF710843884201D0A08800B904E040F2A1
:1052C000231118A0FBF746FF00BF00BFE08828B1FC
:1052D000E08841F6FF710843884201D0E08808B9B0
:1052E00005E010E040F225110EA0FBF733FF00BFF0
:1052F000A088A5F88800E088A5F88C002846A16859
:1053000000F06CFA0026304670BD000000500140ED
:105310000054014000580140005C01400060014021
:10532000006401406472697665725C7372635C68E4
:105330006333325F6C6C5F746D72612E63000000CA
:105340002DE9F04104460D46174600BF2948844226
:105350000ED0294884420BD02848844208D02848DF
:10536000844205D02748844202D02748844206D18F
:105370002DB1264828432549884200D104E040F257
:10538000294123A0FBF7E6FE00BF00BF0FB1012FAC
:1053900000D104E040F22A411DA0FBF7DBFE00BF74
:1053A00005F030064FEA1548012F0FD194F881001F
:1053B000F1B241F0C001084384F88100B4F89000D4
:1053C0001FFA88F10843A4F8900011E094F88100D6
:1053D00046F0C0018843F1B241F0C001B143084337
:1053E00084F88100B4F8900020EA0800A4F8900046
:1053F000BDE8F081005001400054014000580140D8
:10540000005C014000600140006401403000FF008A
:105410006472697665725C7372635C686333325F71
:105420006C6C5F746D72612E630000002DE9F047B3
:1054300005460E4614466FF0020900BF41488542FA
:105440000ED0414885420BD04048854208D04048A4
:10545000854205D03F48854202D03F48854202D16F
:10546000072E00D804E04FF4ED713CA0FBF772FE6C
:1054700000BF002C62D000BFA08828B1A0880128FE
:1054800002D0A088022800D104E040F2DD1133A050
:10549000FBF760FE00BF00BFE08828B1E08801286C
:1054A00002D0E088022800D104E04FF4EF712BA075
:1054B000FBF750FE00BF00BF208940B120890128C2
:1054C00005D02089022802D02089032800D104E0D9
:1054D00040F2DF1121A0FBF73DFE00BF00BF608955
:1054E00040B16089012805D06089022802D0608916
:1054F000032800D104E04FF4F07118A0FBF72AFE56
:1055000000BF05F1400000EB86082088A8F80000E5
:1055100005F5A07000EB86072079A17940EA8100AB
:10552000217A40EA0110A17A40EA8110C0B239889C
:1055300001F47F41084338804FF000094846BDE838
:10554000F087000000500140005401400058014025
:10555000005C0140006001400064014064726976B3
:1055600065725C7372635C686333325F6C6C5F742A
:105570006D72612E630000002DE9F04104460D4676
:10558000164600BF184884420ED0184884420BD0FB
:105590001748844208D01748844205D016488442F0
:1055A00002D01648844202D1072D00D804E04FF4FF
:1055B000067113A0FBF7CEFD00BF00BF0EB1012E98
:1055C00000D104E040F219210DA0FBF7C3FD00BF9C
:1055D00004F5A07000EB8507302101EB471000F1C6
:1055E00084400660BDE8F081005001400054014055
:1055F00000580140005C014000600140006401402F
:105600006472697665725C7372635C686333325F7F
:105610006C6C5F746D72612E6300000001466FF068
:10562000020049B1020C0A6001228A800022CA806D
:1056300003220A814A810020704700002DE9F041D1
:1056400004460D46164600BF104884420ED010484E
:1056500084420BD00F48844208D00F48844205D0C2
:105660000E48844202D00E48844202D1072D00D851
:1056700004E04FF462710BA0FBF76CFD00BF04F176
:10568000400000EB85073E80BDE8F08100500140FE
:105690000054014000580140005C0140006001409E
:1056A000006401406472697665725C7372635C6861
:1056B0006333325F6C6C5F746D72612E6300000047
:1056C00070B504460D4600BF0D4884420ED00D480B
:1056D00084420BD00C48844208D00C48844205D048
:1056E0000B48844202D00B48844200D104E04FF4BE
:1056F000597109A0FBF72EFD00BF258070BD000089
:10570000005001400054014000580140005C01403D
:1057100000600140006401406472697665725C73E8
:1057200072635C686333325F6C6C5F746D72612EA0
:10573000630000002DE9F04104460D46164600BF07
:10574000194884420ED0194884420BD0184884422C
:1057500008D01848844205D01748844202D0174820
:10576000844202D1072D00D804E040F2BF1114A0FA
:10577000FBF7F0FC00BF00BF0EB1012E00D104E02A
:105780004FF4E0710EA0FBF7E5FC00BF04F580705C
:1057900000EB850738884FF6FE71084006F00101DE
:1057A00008433880BDE8F0810050014000540140BA
:1057B00000580140005C014000600140006401406D
:1057C0006472697665725C7372635C686333325FBE
:1057D0006C6C5F746D72612E6300000070B50446DE
:1057E0000D4600BF0D4884420ED00D4884420BD0B8
:1057F0000C48844208D00C48844205D00B488442AF
:1058000002D00B48844200D104E04FF4517109A04A
:10581000FBF7A0FC00BFA58070BD00000050014058
:105820000054014000580140005C0140006001400C
:10583000006401406472697665725C7372635C68CF
:105840006333325F6C6C5F746D72612E63000000B5
:1058500010B5044600BF104884420ED00F48844261
:105860000BD00F48844208D00E48844205D00E4821
:10587000844202D00D48844200D104E040F25641F7
:105880000BA0FBF767FC00BF94F8800040F001001C
:1058900084F8800010BD0000005001400054014019
:1058A00000580140005C014000600140006401407C
:1058B0006472697665725C7372635C686333325FCD
:1058C0006C6C5F746D72612E6300000001466FF0B6
:1058D000020061B100220A704A7000238B7002231B
:1058E000CB708A800023CB80020C8A600020704736
:1058F00070477047704770477047704770477047F0
:1059000070477047704770477047704770477047DF
:1059100070477047704770477047704741000802F2
:1059200018BF04200A0E18BF40F001004FF07F425C
:1059300032EA010108BF40F00200012808BF05203B
:1059400070470000002807DB00F01F020121914092
:10595000024A430942F823107047000080E200E049
:1059600000280DDB00BF00BF00F01F0201219140A5
:105970004209920002F1E022C2F8001100BF00BF0C
:105980007047000010B5002804DB0A07130E054A13
:10599000135406E00A07140E034A00F00F031B1FFE
:1059A000D45410BD00E400E018ED00E00121FAF746
:1059B0000BBE61214FF0E040FAF706BE6FF05E01CA
:1059C0000807FAF701BE02E008C8121F08C1002A42
:1059D000FAD170477047002001E001C1121F002A70
:1059E000FBD1704701490860704700002080FF1F0D
:1059F0002DE9F04104464FF019404E49002500EBD7
:105A0000440088424AD84C492046FAF709FDFAF783
:105A1000E7FD8046FAF774FD064648494046FAF726
:105A2000FFFC074646494046FAF7FAFC2146FAF7DA
:105A3000CAFC3946FAF7C4FC04464249FAF7F0FCBE
:105A40004149FAF76BFC2146FAF7EAFC6FF0414155
:105A5000FAF764FC2146FAF7E3FC3C49FAF75EFCEE
:105A60002146FAF7DDFC0146394806F00304784484
:105A700050F82400FAF7D4FC3649794451F8241040
:105A8000FAF74CFC3449794451F82410FAF746FCF3
:105A9000B11085BBBDE8F041FAF796BD4FF0FF416C
:105AA00031EA040018D04FF0CE41B1EB440F84BF6F
:105AB0004FF07E50BDE8F0812849B1EB440F28BF7C
:105AC0000125A0D20220FFF78DFF14F0004F0ED069
:105AD000BDE8F041FFF772BF204614F5000F04BF88
